:020000040800F2
:100000000000082071330008C50E0008D30E000858
:10001000D90E0008DF0E0008E50E00080000000001
:10002000000000000000000000000000EB0E0008CF
:10003000F90E000800000000070F0008150F000867
:10004000C1330008C1330008C1330008C1330008C0
:10005000C1330008C1330008C1330008C1330008B0
:10006000C1330008C1330008C1330008C1330008A0
:10007000C1330008C1330008C1330008C133000890
:10008000C1330008C1330008C1330008C133000880
:10009000C1330008C1330008C1330008C133000870
:1000A000C1330008C1330008C1330008C133000860
:1000B000C1330008C1330008C1330008C133000850
:1000C000C1330008C1330008C1330008C133000840
:1000D000C1330008C1330008C1330008C133000830
:1000E000C1330008C1330008C1330008C133000820
:1000F000C1330008C1330008C1330008C133000810
:10010000C1330008C1330008C1330008C1330008FF
:10011000C1330008C1330008C1330008C1330008EF
:10012000C1330008C1330008C1330008C1330008DF
:10013000C1330008C1330008C1330008C1330008CF
:10014000C1330008C1330008C1330008C1330008BF
:10015000C1330008C1330008C1330008C1330008AF
:10016000C1330008C1330008C1330008C13300089F
:10017000C1330008C1330008C1330008000000008B
:10018000C1330008C1330008C1330008C13300087F
:10019000C1330008C1330008C1330008C13300086F
:1001A000C1330008C1330008C1330008C13300085F
:1001B000C1330008C1330008C1330008C13300084F
:1001C000C1330008C133000800000000C13300083B
:1001D000C1330008C1330008C1330008C13300082F
:1001E000C1330008C1330008C1330008C13300081F
:0801F000C1330008C13300080F
:1002000010B5054C237833B9044B13B10448AFF350
:1002100000800123237010BD70000020000000004A
:10022000743C000808B5034B1BB103490348AFF306
:10023000008008BD0000000074000020743C00082D
:1002400001F0FF01102A2BDB10F0070F08D010F887
:10025000013B013A8B422DD010F0070F42B3F6D18B
:10026000F0B441EA012141EA014122F007047FF0A4
:1002700000070023F0E80256083C85EA010586EAFB
:10028000010685FA47F5A3FA87F586FA47F6A5FA37
:1002900087F68EB9EED1F0BC01F0FF0102F0070243
:1002A00032B110F8013B013A83EA010313B1F8D1EE
:1002B0000020704701387047002D06BF35460338CF
:1002C000073815F0010F07D1013015F4807F02BF08
:1002D000013015F4C03F0130F0BC0138704700BF59
:1002E00053B94AB9002908BF00281CBF4FF0FF319D
:1002F0004FF0FF3000F07AB9ADF1080C6DE904CE93
:1003000000F006F8DDF804E0DDE9022304B07047F0
:100310002DE9F0478C460D460446089E002B51D12E
:100320008A4217466DD9B2FA82FEBEF1000F0BD099
:10033000CEF1200C01FA0EF520FA0CFC02FA0EF7B1
:100340004CEA050C00FA0EF44FEA174A250CBCFBE8
:10035000FAF81FFA87F90AFB18CC45EA0C4508FBA6
:1003600009F3AB420AD9ED1908F1FF3280F023817D
:10037000AB4240F22081A8F102083D44ED1AA4B23C
:10038000B5FBFAF00AFB105544EA054400FB09F9F5
:10039000A14509D9E41900F1FF3380F00A81A14594
:1003A00040F2078102383C44A4EB090440EA0840CB
:1003B0000021002E61D024FA0EF400233460736013
:1003C000BDE8F0878B4207D9002E54D0002186E883
:1003D00021000846BDE8F087B3FA83F1002940F018
:1003E0008E80AB4202D3824200F2FA80841A65EB1F
:1003F00003050120AC46002E3FD086E81010BDE872
:10040000F08712B90127B7FBF2F7B7FA87FEBEF102
:10041000000F34D1EB1B3A0C1FFA87FC0121B3FB10
:10042000F2F8250C02FB183345EA03450CFB08F3F0
:10043000AB4207D9ED1908F1FF3002D2AB4200F20E
:10044000D1808046ED1AA3B2B5FBF2F002FB105545
:1004500043EA05440CFB00FCA44507D9E41900F16C
:10046000FF3302D2A44500F2B8801846A4EB0C0476
:1004700040EA08409DE731463046BDE8F087CEF1BE
:10048000200405FA0EF307FA0EF720FA04F83A0CE6
:1004900025FA04F448EA0308B4FBF2F14FEA1845E0
:1004A00002FB11441FFA87FC45EA044501FB0CF3EB
:1004B000AB4200FA0EF409D9ED1901F1FF3080F0DA
:1004C0008A80AB4240F2878002393D44EB1A1FFA22
:1004D00088F5B3FBF2F002FB103345EA034500FB5D
:1004E0000CF3AB4207D9ED1900F1FF386FD2AB42E4
:1004F0006DD902383D44EB1A40EA01418FE7C1F162
:10050000200722FA07F88B4005FA01F448EA0303B2
:1005100020FA07FE4FEA134CFD404EEA040EB5FBED
:10052000FCF94FEA1E440CFB19551FFA83F844EA04
:10053000054509FB08F4AC4202FA01F200FA01FA9F
:1005400008D9ED1809F1FF3043D2AC4241D9A9F1E5
:1005500002091D442D1B1FFA8EFEB5FBFCF00CFB9F
:1005600010554EEA054400FB08F8A04507D9E418E9
:1005700000F1FF3529D2A04527D902381C4440EAB2
:100580000940A4EB0804A0FB02894C45C6464D4631
:1005900015D312D056B1BAEB0E0364EB050404FA7E
:1005A00007F7CB401F43CC40376074600021BDE8A3
:1005B000F0871846F8E69046E0E6C245EAD2B8EB86
:1005C000020E69EB03050138E4E72846D7E7404609
:1005D00091E78146BEE7014678E702383C4445E7AB
:1005E000084608E7A8F102083D442BE7704700BF22
:1005F00080B588B000AF0346FB7107F10C03002201
:100600001A605A609A60DA601A61FB79012B0ED188
:100610001023FB6001233B6100237B610023BB614E
:1006200007F10C0319460C4800F014FE10E0FB79AA
:10063000002B0DD11023FB6000233B6100237B6165
:100640000023BB6107F10C031946034800F002FECA
:1006500000BF2037BD4680BD0004024080B594B085
:1006600000AF78600023FB860023BB860023A7F839
:100670004E30002387F84D30002387F84C3000239C
:1006800087F84B30002387F833300120FFF7B0FFA5
:1006900000221021984800F09FFF142000F0D4FCA5
:1006A0000020FFF7A5FF954B1B6800225A6208E067
:1006B000924B1B685B6A9BB2B3F5FA7F01D90023AA
:1006C00016E110218C4800F06FFF0346012BEFD09C
:1006D0008A4B1B6800225A6208E0884B1B685B6AE1
:1006E0009BB2B3F5FA7F01D9002301E110218248C2
:1006F00000F05AFF0346002BEFD0804B1B685B6A6B
:10070000FB867E4B1B6800225A6208E07B4B1B680D
:100710005B6A9BB2B3F5FA7F01D90023E8E01021B0
:10072000754800F041FF0346012BEFD0734B1B6867
:100730005B6ABB86FB8E4A2B0FD8FB8E552B0CD9E0
:10074000BB8E4A2B09D8BB8E552B06D94FF480415E
:10075000694800F05AFF0023CAE001228021664860
:1007600000F03AFF00237B644CE0644B1B680022DE
:100770005A6208E0614B1B685B6A9BB2B3F5FA7F73
:1007800001D90023B4E010215B4800F00DFF0346BF
:10079000002BEFD0594B1B6800225A6208E0574BE0
:1007A0001B685B6A9BB2B3F5FA7F01D900239FE017
:1007B0001021514800F0F8FE0346012BEFD04F4BBB
:1007C0001B685B6AFB86FB8E142B06D9FB8E1D2BE8
:1007D00003D80023A7F84E3008E0FB8E3C2B05D948
:1007E000FB8E4F2B02D80123A7F84E30B7F84E30BE
:1007F000D9B207F108027B6C13440A461A707B6C6D
:1008000001337B647B6C272BAFDD00233B6411E05D
:1008100007F108023B6C13441A7897F84D301344E3
:1008200087F84D3097F84D305B0087F84D303B6CC2
:1008300001333B643B6C072BEADD1023FB6311E0C3
:1008400007F10802FB6B13441A7897F84C301344F5
:1008500087F84C3097F84C305B0087F84C30FB6BD6
:100860000133FB63FB6B172BEADD2023BB6311E035
:1008700007F10802BB6B13441A7897F84B30134406
:1008800087F84B3097F84B305B0087F84B30BB6BE9
:100890000133BB63BB6B272BEADD97F84B305B085A
:1008A00087F84B3097F84D305B0887F84D3097F854
:1008B0004C305B0887F84C3097F84D2097F84C3057
:1008C000134487F8333097F8332097F84B309A4227
:1008D00004D100228021084800F07EFE7B6897F852
:1008E0004C201A707B68013397F84D201A70012351
:1008F00018465037BD4680BD000402400C01002060
:10090000B0B582B000AF00F041FB00F04FF800F04E
:1009100045F900F013F900F0DBF81D4801F09FFFE6
:100920004FF480411B4800F070FE1B48FFF796FE15
:100930000346012B11D1184B5B781A46164B1B78D6
:100940001649174802F06AFD0346FB80FA886423C3
:100950001349144802F0F3F815E0114A124B1546FA
:100960001C460FCC28606960AA60EB602388A278DF
:100970002B821346AB741223BB80BA8864230849C8
:10098000084802F0DCF840F6B83000F05DFBC7E73D
:100990000C01002000040240080100208C3C0008EB
:1009A0004C01002098000020A03C000880B5B8B0A1
:1009B00000AF07F1AC0334220021184602F026FDF7
:1009C00007F1980300221A605A609A60DA601A618F
:1009D00007F1080390220021184602F017FD00F0ED
:1009E00027FE394A384B1B6C43F080531364364B57
:1009F0001B6C03F080537B607B68344A334B1B686D
:100A000043F440431360314B1B6803F440433B60A5
:100A10003B680123C7F8AC304FF4A023C7F8B030CF
:100A20000223C7F8C4304FF48003C7F8C83004234A
:100A3000C7F8CC30D823C7F8D0300223C7F8D43059
:100A40000923C7F8D83007F1AC03184600F050FE70
:100A50000346002B01D000F0A5F900F0F9FD034694
:100A6000002B01D000F09EF90F23C7F89830022325
:100A7000C7F89C300023C7F8A0304FF4A053C7F844
:100A8000A4304FF48053C7F8A83007F1980307212A
:100A9000184601F09FF80346002B01D000F082F9C0
:100AA0004FF48073BB6000237B6507F10803184691
:100AB00001F084FA0346002B01D000F073F900BF67
:100AC000E037BD4680BD00BF0038024000700040E6
:100AD00080B584B000AF3B1D00221A605A609A6056
:100AE000144B154A1A60134B6C225A60114B0022AA
:100AF0009A60104B4FF6FF72DA600E4B00229A613B
:100B00000C4801F081FE0346002B01D000F04AF9A9
:100B100000237B600023FB603B1D1946054801F064
:100B200069FF0346002B01D000F03CF900BF1037ED
:100B3000BD4680BD0C0100200010004080B500AF14
:100B4000144B154A1A60134B4FF4E1325A60114BA3
:100B500000229A600F4B0022DA600E4B00221A61CD
:100B60000C4B0C225A610B4B00229A61094B00225C
:100B7000DA61084B00221A62064B00225A620548CD
:100B800001F08CFF0346002B01D000F00BF900BFF1
:100B900080BD00BF980000200048004080B58CB0A8
:100BA00000AF07F11C0300221A605A609A60DA60F5
:100BB0001A61764A754B1B6B43F004031363734B46
:100BC0001B6B03F00403BB61BB69704A6F4B1B6B6B
:100BD00043F0800313636D4B1B6B03F080037B6159
:100BE0007B696A4A694B1B6B43F001031363674BD4
:100BF0001B6B03F001033B613B69644A634B1B6B56
:100C000043F002031363614B1B6B03F00203FB60B1
:100C1000FB685E4A5D4B1B6B43F0080313635B4B41
:100C20001B6B03F00803BB60BB68584A574B1B6B38
:100C300043F040031363554B1B6B03F040037B6091
:100C40007B68002244F29001514800F0C5FC00226C
:100C50004021504800F0C0FC4FF40053FB614E4B64
:100C60003B6200237B6207F11C0319464B4800F0EE
:100C7000F1FA3223FB6102233B6200237B620323F0
:100C8000BB620B23FB6207F11C031946434800F0CB
:100C9000E1FA8623FB6102233B6200237B6203238C
:100CA000BB620B23FB6207F11C0319463C4800F0B2
:100CB000D1FA4FF40053FB6102233B6200237B62B5
:100CC0000323BB620B23FB6207F11C031946304868
:100CD00000F0C0FA44F29003FB6101233B62002361
:100CE0007B620023BB6207F11C031946284800F011
:100CF000B1FA4023FB6101233B6200237B620023A6
:100D0000BB6207F11C031946224800F0A3FA8023B6
:100D1000FB6100233B6200237B6207F11C03194641
:100D20001C4800F097FA4FF4E853FB6102233B6242
:100D300000237B620323BB620A23FB6207F11C03CF
:100D40001946174800F086FA4FF40073FB61002340
:100D50003B6200237B6207F11C031946104800F038
:100D600079FA4FF42053FB6102233B6200237B623C
:100D70000323BB620B23FB6207F11C0319460548E2
:100D800000F068FA00BF3037BD4680BD0038024031
:100D90000004024000180240000011100008024048
:100DA0000000024080B400AF00BFBD465DF8047B88
:100DB0007047000080B483B000AF0F4A0E4B1B6C2D
:100DC00043F0805313640C4B1B6C03F080537B6027
:100DD0007B68094A084B5B6C43F480435364064BC1
:100DE0005B6C03F480433B603B6800BF0C37BD463F
:100DF0005DF8047B704700BF0038024080B485B0C6
:100E000000AF78607B681B680A4A93420BD10A4A9C
:100E1000094B1B6C43F010031364074B1B6C03F06E
:100E20001003FB60FB6800BF1437BD465DF8047B10
:100E3000704700BF001000400038024080B58AB003
:100E400000AF786007F1140300221A605A609A60BC
:100E5000DA601A617B681B68174A934228D1174AE7
:100E6000164B1B6C43F480231364144B1B6C03F46C
:100E700080233B613B69114A104B1B6B43F0080315
:100E800013630E4B1B6B03F00803FB60FB684FF40E
:100E900040737B610223BB610023FB6103233B6240
:100EA00007237B6207F114031946054800F0D2F9C5
:100EB00000BF2837BD4680BD0048004000380240D2
:100EC000000C024080B400AF00BFBD465DF8047B5B
:100ED000704780B400AFFEE780B400AFFEE780B497
:100EE00000AFFEE780B400AFFEE780B400AF00BF04
:100EF000BD465DF8047B704780B400AF00BFBD46BF
:100F00005DF8047B704780B400AF00BFBD465DF85C
:100F1000047B704780B500AF00F076F800BF80BD5D
:100F200080B400AF154A154BD3F8883043F47003F2
:100F3000C2F88830124A124B1B6843F00103136059
:100F40000F4B00229A600E490D4B1A680D4B13404F
:100F50000B600B4B0C4A5A60094A094B1B6823F47F
:100F600080231360064B0022DA60044B4FF00062CE
:100F70009A6000BFBD465DF8047B704700ED00E05D
:100F800000380240FFFFF6FE1030002480B500AFAD
:100F9000032000F02BF9002000F006F8FFF70AFF0D
:100FA0000023184680BD000080B582B000AF786095
:100FB000124B1A68124B1B7819464FF47A73B3FB25
:100FC000F1F3B2FBF3F3184600F037F90346002BB8
:100FD00001D001230EE07B680F2B0AD8002279682C
:100FE0004FF0FF3000F00DF9064A7B6813600023D4
:100FF00000E0012318460837BD4680BD00000020F0
:10100000080000200400002080B400AF064B1B78CD
:101010001A46064B1B681344044A136000BFBD46C2
:101020005DF8047B704700BF08000020CC01002061
:1010300080B400AF034B1B681846BD465DF8047BC7
:10104000704700BFCC01002080B584B000AF78604D
:10105000FFF7EEFFB8607B68FB60FB68B3F1FF3F12
:1010600005D0094B1B781A46FB681344FB6000BF90
:10107000FFF7DEFF0246BB68D21AFB689A42F7D33D
:1010800000BF1037BD4680BD0800002080B485B089
:1010900000AF78607B6803F00703FB600B4BDB68F5
:1010A000BB60BA684FF6FF031340BB60FB681A02CF
:1010B000BB681A43064B1343BB60044ABB68D3604A
:1010C00000BF1437BD465DF8047B704700ED00E0BB
:1010D0000000FA0580B400AF044BDB681B0A03F084
:1010E00007031846BD465DF8047B704700ED00E03D
:1010F00080B483B000AF03463960FB7197F90730C5
:10110000002B0BDA0D49FB7903F00F03043B3A681F
:10111000D2B21201D2B20B441A7609E0084997F90B
:1011200007303A68D2B21201D2B20B4483F80023DE
:1011300000BF0C37BD465DF8047B704700ED00E052
:1011400000E100E080B489B000AFF860B9607A6077
:10115000FB6803F00703FB61FB69C3F10703042B82
:1011600028BF0423BB61FB690433062B02D9FB694A
:10117000033B00E000237B610122BB6902FA03F319
:101180005A1EBB681A407B699A4001217B6901FAAB
:1011900003F3591E7B680B40134318462437BD46A2
:1011A0005DF8047B7047000080B582B000AF7860C6
:1011B0007B68013BB3F1807F01D301230FE00A4A32
:1011C0007B68013B53600F214FF0FF30FFF790FF2A
:1011D000054B00229A60044B07221A600023184630
:1011E0000837BD4680BD00BF10E000E080B582B08A
:1011F00000AF78607868FFF749FF00BF0837BD4649
:1012000080BD80B586B000AF0346B9607A60FB73DD
:1012100000237B61FFF75EFF78617A68B9687869BF
:10122000FFF790FF024697F90F3011461846FFF777
:101230005FFF00BF1837BD4680BD80B582B000AFEC
:1012400078607868FFF7B0FF034618460837BD4658
:1012500080BD000080B489B000AF786039600023A1
:10126000FB6100237B6100233B610023BB61002302
:10127000FB6175E10122FB6902FA03F37B613B68C4
:101280001A687B6913403B613A697B699A4240F076
:1012900064813B685B68022B03D03B685B68122B60
:1012A00023D1FB69DA087B68083253F82230BB612E
:1012B000FB6903F007039B000F2202FA03F3DB43F1
:1012C000BA691340BB613B681A69FB6903F0070305
:1012D0009B0002FA03F3BA691343BB61FB69DA08A6
:1012E0007B680832B96943F822107B681B68BB61D0
:1012F000FB695B00032202FA03F3DB43BA69134084
:10130000BB613B685B6803F00302FB695B0002FAA8
:1013100003F3BA691343BB617B68BA691A603B681F
:101320005B68012B0BD03B685B68022B07D03B68E6
:101330005B68112B03D03B685B68122B30D17B6854
:101340009B68BB61FB695B00032202FA03F3DB438A
:10135000BA691340BB613B68DA68FB695B0002FA5B
:1013600003F3BA691343BB617B68BA699A607B680F
:101370005B68BB610122FB6902FA03F3DB43BA69D4
:101380001340BB613B685B681B0903F00102FB690A
:1013900002FA03F3BA691343BB617B68BA695A6006
:1013A0007B68DB68BB61FB695B00032202FA03F325
:1013B000DB43BA691340BB613B689A68FB695B0019
:1013C00002FA03F3BA691343BB617B68BA69DA6056
:1013D0003B685B6803F08053002B00F0BE80654AD9
:1013E000644B5B6C43F480435364624B5B6C03F46B
:1013F0008043FB60FB68604AFB699B08023352F83C
:101400002330BB61FB6903F003039B000F2202FA48
:1014100003F3DB43BA691340BB617B68574A9342CD
:1014200037D07B68564A934231D07B68554A934205
:101430002BD07B68544A934225D07B68534A934211
:101440001FD07B68524A934219D07B68514A93421D
:1014500013D07B68504A93420DD07B684F4A934229
:1014600007D07B684E4A934201D1092312E00A2338
:1014700010E008230EE007230CE006230AE0052312
:1014800008E0042306E0032304E0022302E0012332
:1014900000E00023FA6902F0030292009340BA6967
:1014A0001343BB613449FB699B080233BA6941F8B5
:1014B00023203C4B1B68BB613B69DB43BA6913408B
:1014C000BB613B685B6803F48033002B03D0BA69CF
:1014D0003B691343BB61334ABB691360314B5B68A3
:1014E000BB613B69DB43BA691340BB613B685B6826
:1014F00003F40033002B03D0BA693B691343BB618B
:10150000284ABB695360274B9B68BB613B69DB433F
:10151000BA691340BB613B685B6803F48013002B1E
:1015200003D0BA693B691343BB611E4ABB69936030
:101530001C4BDB68BB613B69DB43BA691340BB6191
:101540003B685B6803F40013002B03D0BA693B6966
:101550001343BB61134ABB69D360FB690133FB6171
:10156000FB690F2B7FF686AE00BF2437BD465DF8C2
:10157000047B704700380240003801400000024000
:101580000004024000080240000C0240001002402B
:101590000014024000180240001C024000200240DB
:1015A00000240240003C014080B485B000AF786068
:1015B0000B467B807B681A697B881340002B02D026
:1015C0000123FB7301E00023FB73FB7B18461437F8
:1015D000BD465DF8047B704780B483B000AF78608F
:1015E0000B467B8013467B707B78002B03D07A8878
:1015F0007B689A6103E07B881A047B689A6100BF6C
:101600000C37BD465DF8047B704780B483B000AFF3
:1016100078600B467B807B685A697B885A407B6880
:101620005A6100BF0C37BD465DF8047B704700006F
:1016300080B400AF054A054B1B6843F48073136008
:1016400000BFBD465DF8047B704700BF00700040DE
:1016500080B582B000AF00237B60234A224B1B6C15
:1016600043F080531364204B1B6C03F080533B60AA
:101670003B681E4A1D4B1B6843F480331360FFF721
:10168000D7FC786009E0FFF7D3FC02467B68D31AE9
:10169000B3F57A7F01D9032322E0144B5B6803F48E
:1016A0008033B3F5803FEED1104A104B1B6843F4F2
:1016B00000331360FFF7BCFC786009E0FFF7B8FC6B
:1016C00002467B68D31AB3F57A7F01D9032307E07A
:1016D000064B5B6803F40033B3F5003FEED1002303
:1016E00018460837BD4680BD0038024000700040F3
:1016F00080B586B000AF78600023FB757B68002B57
:1017000001D101235EE27B681B6803F00103002B1B
:1017100000F08780964B9B6803F00C03042B0CD0E1
:10172000934B9B6803F00C03082B12D1904B5B6822
:1017300003F48003B3F5800F0BD18D4B1B6803F4CA
:101740000033002B6CD07B685B68002B68D10123D1
:1017500038E27B685B68B3F5803F06D1844A844BEE
:101760001B6843F4803313602EE07B685B68002BBA
:101770000CD17F4A7E4B1B6823F4803313607C4A74
:101780007B4B1B6823F4802313601DE07B685B6840
:10179000B3F5A02F0CD1764A754B1B6843F4802318
:1017A0001360734A724B1B6843F4803313600BE081
:1017B0006F4A6F4B1B6823F4803313606C4A6C4B89
:1017C0001B6823F4802313607B685B68002B13D0B5
:1017D000FFF72EFC386108E0FFF72AFC02463B6960
:1017E000D31A642B01D90323ECE1614B1B6803F48A
:1017F0000033002BF0D014E0FFF71AFC386108E04A
:10180000FFF716FC02463B69D31A642B01D9032368
:10181000D8E1574B1B6803F40033002BF0D100E0F4
:1018200000BF7B681B6803F00203002B69D0504B9C
:101830009B6803F00C03002B0BD04D4B9B6803F00F
:101840000C03082B1CD14A4B5B6803F48003002B6C
:1018500016D1474B1B6803F00203002B05D07B68B1
:10186000DB68012B01D00123ACE14149404B1B68EF
:1018700023F0F8027B681B69DB0013430B6040E038
:101880007B68DB68002B23D0394A394B1B6843F057
:1018900001031360FFF7CCFB386108E0FFF7C8FBDA
:1018A00002463B69D31A022B01D903238AE1304B4C
:1018B0001B6803F00203002BF0D02D492C4B1B6852
:1018C00023F0F8027B681B69DB0013430B6018E010
:1018D000274A274B1B6823F001031360FFF7A8FB7F
:1018E000386108E0FFF7A4FB02463B69D31A022BDC
:1018F00001D9032366E11E4B1B6803F00203002B92
:10190000F0D17B681B6803F00803002B38D07B689C
:101910005B69002B19D0164A154B5B6F43F001032E
:101920005367FFF785FB386108E0FFF781FB02464C
:101930003B69D31A022B01D9032343E10C4B5B6FA4
:1019400003F00203002BF0D01AE0094A084B5B6F4A
:1019500023F001035367FFF76BFB38610AE0FFF7E1
:1019600067FB02463B69D31A022B03D9032329E103
:1019700000380240954B5B6F03F00203002BEED161
:101980007B681B6803F00403002B00F0A4808F4BDE
:101990001B6C03F08053002B0DD18C4A8B4B1B6CBE
:1019A00043F080531364894B1B6C03F08053FB603E
:1019B000FB680123FB75864B1B6803F48073002BC7
:1019C00018D1834A824B1B6843F480731360FFF77E
:1019D0002FFB386108E0FFF72BFB02463B69D31A67
:1019E000642B01D90323EDE0794B1B6803F480736A
:1019F000002BF0D07B689B68012B06D1734A734B98
:101A00001B6F43F0010313672DE07B689B68002B7D
:101A10000CD16E4A6D4B1B6F23F0010313676B4AA9
:101A20006A4B1B6F23F0040313671CE07B689B6801
:101A3000052B0CD1654A654B1B6F43F004031367FC
:101A4000624A624B1B6F43F0010313670BE05F4A6E
:101A50005E4B1B6F23F0010313675C4A5B4B1B6FEC
:101A600023F0040313677B689B68002B15D0FFF7F6
:101A7000DFFA38610AE0FFF7DBFA02463B69D31A66
:101A800041F28832934201D903239BE04F4B1B6FF5
:101A900003F00203002BEED014E0FFF7C9FA38611F
:101AA0000AE0FFF7C5FA02463B69D31A41F28832D1
:101AB000934201D9032385E0444B1B6F03F00203DB
:101AC000002BEED1FB7D012B05D1404A3F4B1B6C17
:101AD00023F0805313647B689B69002B71D03B4BD0
:101AE0009B6803F00C03082B69D07B689B69022B71
:101AF0004BD1364A354B1B6823F080731360FFF7D8
:101B000097FA386108E0FFF793FA02463B69D31A67
:101B1000022B01D9032355E02C4B1B6803F0007303
:101B2000002BF0D129497B68DA697B681B6A1A436C
:101B30007B685B6A9B011A437B689B6A5B08013B7D
:101B40001B041A437B68DB6A1B061A437B681B6B0A
:101B50001B0713434B601D4A1C4B1B6843F08073EB
:101B60001360FFF765FA386108E0FFF761FA024693
:101B70003B69D31A022B01D9032323E0134B1B68C3
:101B800003F00073002BF0D01BE0104A0F4B1B68D2
:101B900023F080731360FFF74BFA386108E0FFF71A
:101BA00047FA02463B69D31A022B01D9032309E005
:101BB000064B1B6803F00073002BF0D101E00123FA
:101BC00000E0002318461837BD4680BD00380240AB
:101BD0000070004080B584B000AF786039600023A9
:101BE000FB607B68002B01D10123CEE0694B1B68B1
:101BF00003F00F023B689A4210D26649654B1B689E
:101C000023F00F023B6813430B60624B1B6803F029
:101C10000F023B689A4201D00123B6E07B681B6843
:101C200003F00203002B20D07B681B6803F0040341
:101C3000002B05D0584A584B9B6843F4E0539360FF
:101C40007B681B6803F00803002B05D0524A524BF7
:101C50009B6843F4604393604F494F4B9B6823F06C
:101C6000F0027B689B6813438B607B681B6803F002
:101C70000103002B40D07B685B68012B07D1464BEA
:101C80001B6803F40033002B15D101237DE07B6832
:101C90005B68022B07D1404B1B6803F00073002BDD
:101CA00009D1012371E03C4B1B6803F00203002BB8
:101CB00001D1012369E03849374B9B6823F00302C7
:101CC0007B685B6813438B60FFF7B2F9F8600AE04A
:101CD000FFF7AEF90246FB68D31A41F2883293420D
:101CE00001D9032351E02C4B9B6803F00C027B6865
:101CF0005B689B009A42EBD1264B1B6803F00F02F6
:101D00003B689A4210D92349224B1B6823F00F02EB
:101D10003B6813430B601F4B1B6803F00F023B68CB
:101D20009A4201D0012330E07B681B6803F0040372
:101D3000002B08D01849184B9B6823F4E0527B68AD
:101D4000DB6813438B607B681B6803F00803002B80
:101D500009D01149104B9B6823F460427B681B69D2
:101D6000DB0013438B6000F01DF801460A4B9B68B3
:101D70001B0903F00F03094AD35C21FA03F3084A55
:101D800013600020FFF710F9002318461037BD46F6
:101D900080BD00BF003C024000380240B43C000857
:101DA000000000202DE9F04F8FB000AF0023FB6250
:101DB00000237B630023BB6200233B63624B9B6871
:101DC00003F00C03042B07D0082B08D0002B40F0A5
:101DD000B2805E4B3B63B1E05D4B3B63AEE05A4B80
:101DE0005B6803F03F03FB62574B5B6803F48003BF
:101DF000002B4ED0544B5B689B094FF0000440F21F
:101E0000FF114FF0000201EA030102EA04020B464F
:101E1000144660017862786A40EAD36078625B01B8
:101E20003B62D7E908345B1A64EB02044FEA841979
:101E300049EA93694FEA8318B8EB030869EB040990
:101E40004FEAC903FB61FB6943EA5873FB614FEA40
:101E5000C803BB61D7E9068918EB010849EB020901
:101E60004FEA49237B617B6943EAD8537B614FEAA0
:101E700048233B61D7E9048940464946FB6A4FF055
:101E800000041A462346FEF72BFA03460C467B63F2
:101E900043E02D4B5B689B094FF0000440F2FF11BB
:101EA0004FF0000201EA030102EA04020B46144665
:101EB0006001F860F86840EAD360F8605B01BB60DD
:101EC000D7E902345B1A64EB0204A60146EA936682
:101ED0009D01ED1A66EB0406F3007B607B6843EA24
:101EE00055737B60EB003B6097E860006D1846EB34
:101EF00002064FEA862B4BEA955B4FEA852A554648
:101F00005E4628463146FB6A4FF000041A462346D7
:101F1000FEF7E6F903460C467B630B4B5B681B0C34
:101F200003F0030301335B00BB627A6BBB6AB2FB55
:101F3000F3F33B6302E0054B3B6300BF3B6B18468A
:101F40003C37BD46BDE8F08F003802400024F40065
:101F500000127A0080B400AF034B1B681846BD46E0
:101F60005DF8047B704700BF0000002080B500AF23
:101F7000FFF7F0FF0146054B9B689B0A03F0070340
:101F8000034AD35C21FA03F3184680BD00380240AF
:101F9000C43C000880B500AFFFF7DCFF0146054BED
:101FA0009B685B0B03F00703034AD35C21FA03F33E
:101FB000184680BD00380240C43C000880B588B097
:101FC00000AF786000237B6100233B610023FB604E
:101FD0000023FB610023BB617B681B6803F00103E6
:101FE000002B12D0694A694B9B6823F4000393606D
:101FF0006649664B9A687B685B6B13438B607B68B2
:102000005B6B002B01D10123FB617B681B6803F430
:102010000023002B17D05D495C4BD3F88C3023F4A0
:1020200040127B68DB6B1343C1F88C307B68DB6B41
:10203000B3F5801F01D10123FB617B68DB6B002BB3
:1020400001D10123BB617B681B6803F48013002B63
:1020500017D04E494D4BD3F88C3023F440027B68A7
:102060001B6C1343C1F88C307B681B6CB3F5800F7D
:1020700001D10123FB617B681B6C002B01D1012383
:10208000BB617B681B6803F08073002B01D00123C8
:10209000FB617B681B6803F02003002B00F08B8042
:1020A0003A4A3A4B1B6C43F080531364374B1B6C1A
:1020B00003F08053BB60BB68354A354B1B6843F463
:1020C00080731360FEF7B4FF786108E0FEF7B0FF9D
:1020D00002467B69D31A642B01D903238DE32C4B71
:1020E0001B6803F48073002BF0D0284B1B6F03F4A4
:1020F00040733B613B69002B35D07B681B6B03F45D
:1021000040723B699A422ED0204B1B6F23F44073E0
:102110003B611E4A1D4B1B6F43F4803313671B4A00
:102120001A4B1B6F23F480331367184A3B691367FC
:10213000164B1B6F03F00103002B14D0FEF778FF42
:1021400078610AE0FEF774FF02467B69D31A41F218
:102150008832934201D903234FE30C4B1B6F03F0EA
:102160000203002BEED07B681B6B03F44073B3F5C6
:10217000407F11D10548054B9B6823F4F8127B681A
:10218000196B044B0B40134383600BE00038024093
:1021900000700040FFFCFF0FB24AB24B9B6823F473
:1021A000F8139360AF49AF4B1A6F7B681B6BC3F397
:1021B0000B0313430B677B681B6803F01003002BB2
:1021C00010D0A84AA74BD3F88C3023F08073C2F804
:1021D0008C30A449A34BD3F88C207B689B6B1343B2
:1021E000C1F88C307B681B6803F48043002B0AD055
:1021F0009C499C4BD3F8903023F440327B685B6E53
:102200001343C1F890307B681B6803F40043002B34
:102210000AD09449934BD3F8903023F440227B6842
:102220009B6E1343C1F890307B681B6803F48033C6
:10223000002B0AD08B498B4BD3F8903023F44012FB
:102240007B68DB6E1343C1F890307B681B6803F436
:102250000033002B0AD08349824BD3F8903023F40B
:1022600040027B681B6F1343C1F890307B681B688A
:1022700003F04003002B0AD07A497A4BD3F8903010
:1022800023F003027B685B6C1343C1F890307B68DA
:102290001B6803F08003002B0AD07249714BD3F8FE
:1022A000903023F00C027B689B6C1343C1F8903094
:1022B0007B681B6803F48073002B0AD06949694B63
:1022C000D3F8903023F030027B68DB6C1343C1F805
:1022D00090307B681B6803F40073002B0AD06149BF
:1022E000604BD3F8903023F0C0027B681B6D134322
:1022F000C1F890307B681B6803F48063002B0AD020
:102300005849584BD3F8903023F440727B685B6D8A
:102310001343C1F890307B681B6803F40063002B03
:102320000AD050494F4BD3F8903023F440627B6879
:102330009B6D1343C1F890307B681B6803F4805396
:10234000002B0AD04749474BD3F8903023F4405232
:102350007B68DB6D1343C1F890307B681B6803F426
:102360000053002B0AD03F493E4BD3F8903023F462
:1023700040427B681B6E1343C1F890307B681B683A
:1023800003F48003002B0AD03649364BD3F8903043
:1023900023F080627B689B6F1343C1F890307B68A9
:1023A0001B6803F40013002B11D02E492D4BD3F8DA
:1023B000903023F000627B68DB6F1343C1F89030EC
:1023C0007B68DB6FB3F1006F01D10123BB617B68D8
:1023D0001B6803F00803002B01D00123BB617B685D
:1023E0001B6803F48023002B0AD01E491D4BD3F831
:1023F000903023F040727B685B6F1343C1F89030DC
:102400007B681B6803F40003002B0BD01549154BA8
:10241000D3F8903023F080527B68D3F88030134398
:10242000C1F890307B681B6803F08063002B0BD0F1
:102430000C490C4BD3F8903023F000527B68D3F852
:1024400084301343C1F890307B681B6803F000634D
:10245000002B0ED00349034BD3F88C3023F00072CD
:102460007B6801E000380240D3F888301343C1F89C
:102470008C307B681B6803F08053002B0BD08149A4
:10248000804BD3F88C3023F080627B68D3F88C309B
:102490001343C1F88C30FB69012B05D07B681B68A6
:1024A000B3F1007F40F0D680764A764B1B6823F06C
:1024B00080631360FEF7BCFD786108E0FEF7B8FDAD
:1024C00002467B69D31A642B01D9032395E16D4B36
:1024D0001B6803F00063002BF0D17B681B6803F0DE
:1024E0000103002B21D07B685B6B002B1DD1654B5A
:1024F000D3F884301B0C03F003033B61614BD3F82A
:1025000084301B0E03F00F03FB605E497B685B6841
:102510009A013B691B041A43FB681B061A437B683C
:102520009B681B071343C1F884307B681B6803F466
:102530000023002B04D07B68DB6BB3F5801F0AD02F
:102540007B681B6803F48013002B2ED07B681B6C08
:10255000B3F5800F29D14B4BD3F884301B0C03F01B
:1025600003033B61474BD3F884301B0F03F0070391
:10257000FB6044497B685B689A013B691B041A4312
:102580007B68DB681B061A43FB681B071343C1F813
:1025900084303C493B4BD3F88C3023F01F027B68DE
:1025A0005B6A013B1343C1F88C307B681B6803F006
:1025B0008073002B1DD0334BD3F884301B0E03F0F7
:1025C0000F033B612F4BD3F884301B0F03F007033D
:1025D000FB602C497B685B689A017B681B691B0464
:1025E0001A433B691B061A43FB681B071343C1F8D8
:1025F00084307B681B6803F00073002B11D02149E5
:102600007B685B689A017B681B691B041A437B68C3
:10261000DB681B061A437B689B681B071343C1F8E2
:102620008430184A174B1B6843F080631360FEF731
:10263000FFFC786108E0FEF7FBFC02467B69D31AD9
:10264000642B01D90323D8E00E4B1B6803F0006311
:10265000002BF0D0BB69012B40F0CE80094A094B1A
:102660001B6823F080531360FEF7E2FC78610BE0F7
:10267000FEF7DEFC02467B69D31A642B04D90323E0
:10268000BBE000BF003802405E4B1B6803F0005304
:10269000B3F1005FECD07B681B6803F40023002BD0
:1026A00003D07B68DB6B002B09D07B681B6803F4CD
:1026B0008013002B2ED07B681B6C002B2AD1514B32
:1026C000D3F888301B0C03F003033B614D4BD3F868
:1026D00088301B0F03F00703FB604A497B685B6986
:1026E0009A013B691B041A437B689B691B061A43CA
:1026F000FB681B071343C1F888304249414BD3F8AC
:102700008C3023F4F8527B689B6A013B1B02134315
:10271000C1F88C307B681B6803F40013002B22D0B7
:102720007B68DB6FB3F1006F1DD1364BD3F8883077
:102730001B0E03F00F033B61324BD3F888301B0FA5
:1027400003F00703FB602F497B685B699A017B6894
:102750001B6A1B041A433B691B061A43FB681B07D1
:102760001343C1F888307B681B6803F00803002B13
:1027700028D0244BD3F888301B0E03F00F033B61A5
:10278000204BD3F888301B0C03F00303FB601D497A
:102790007B685B699A01FB681B041A433B691B0653
:1027A0001A437B68DB691B071343C1F8883015495E
:1027B000144BD3F88C3023F440327B68DB6A13432C
:1027C000C1F88C300F4A0F4B1B6843F080531360E5
:1027D000FEF72EFC786108E0FEF72AFC02467B69D2
:1027E000D31A642B01D9032307E0064B1B6803F0BF
:1027F0000053B3F1005FEFD1002318462037BD46E8
:1028000080BD00BF0038024080B582B000AF786064
:102810007B68002B01D101231DE07B6893F83D30DC
:10282000DBB2002B06D17B68002283F83C2078685D
:10283000FEF7E4FA7B68022283F83D207B681A6881
:102840007B6804331946104600F024F87B680122A7
:1028500083F83D20002318460837BD4680BD80B46C
:1028600083B000AF78607B68022283F83D207B68EC
:102870001B687A681268126842F001021A607B686D
:10288000012283F83D20002318460C37BD465DF831
:10289000047B704780B485B000AF78603960002356
:1028A000FB607B681B68FB607B68474A934213D0E0
:1028B0007B68B3F1804F0FD07B68444A93420BD0C2
:1028C0007B68434A934207D07B68424A934203D0D5
:1028D0007B68414A934201D1012300E00023002B91
:1028E00008D0FB6823F07003FB603B685B68FA6804
:1028F0001343FB607B68344A93422BD07B68B3F16F
:10290000804F27D07B68314A934223D07B68304A7E
:1029100093421FD07B682F4A93421BD07B682E4A7C
:10292000934217D07B682D4A934213D07B682C4A80
:1029300093420FD07B682B4A93420BD07B682A4A84
:10294000934207D07B68294A934203D07B68284A88
:10295000934201D1012300E00023002B08D0FB6843
:1029600023F44073FB603B68DB68FA681343FB6049
:10297000FB6823F080023B685B691343FB607B6864
:10298000FA681A603B689A687B68DA623B681A6882
:102990007B689A627B680C4A934203D07B680E4A3C
:1029A000934201D1012300E00023002B03D03B68B8
:1029B0001A697B681A637B6801225A6100BF143769
:1029C000BD465DF8047B70470000014000040040F4
:1029D00000080040000C004000040140004001409D
:1029E000004401400048014000180040001C004025
:1029F0000020004080B485B000AF786039607B680B
:102A000093F83C30012B01D102233DE07B68012289
:102A100083F83C207B681B685B68FB607B681B68F5
:102A20009B68BB607B681B681A4A934204D07B6832
:102A30001B68194A934208D1FB6823F47003FB60BA
:102A40003B685B68FA681343FB60FB6823F0700324
:102A5000FB603B681B68FA681343FB60BB6823F0AC
:102A60008003BB603B689B68BA681343BB607B68AC
:102A70001B68FA685A607B681B68BA689A607B6852
:102A8000002283F83C20002318461437BD465DF829
:102A9000047B7047000001400004014080B582B013
:102AA00000AF78607B68002B01D1012343E07B6895
:102AB00093F86930DBB2002B06D17B68002283F8E3
:102AC00068207868FEF7BAF97B68242283F86920C9
:102AD0007B681B687A681268126822F001021A602B
:102AE000786800F001F90346012B01D1012322E0AF
:102AF0007B685B6A002B02D0786800F063FB7B6820
:102B00001B687A681268526822F490425A607B68A7
:102B10001B687A681268926822F02A029A607B68C1
:102B20001B687A681268126842F001021A607868BD
:102B300000F0EAFB034618460837BD4680BD80B565
:102B400088B002AFF860B9603B601346FB80002399
:102B50007B61FB6893F86930DBB2202B75D1BB68D1
:102B6000002B02D0FB88002B01D101236EE0FB6813
:102B700093F86830012B01D1022367E0FB68012242
:102B800083F86820FB680022DA66FB68212283F85C
:102B90006920FEF74DFA7861FB68FA88A3F85020A7
:102BA000FB68FA88A3F8522032E0FB68B3F8523091
:102BB0009BB2013B9AB2FB68A3F852203B6800939A
:102BC0007B6900228021F86800F044F80346002B5E
:102BD00001D003233AE0FB689B68B3F5805F10D116
:102BE000FB681B69002B0CD1BB683B61FB681B6851
:102BF0003A691288C2F308029A62BB680233BB606A
:102C000006E0FB681A68BB68591CB9601B789362C0
:102C1000FB68B3F852309BB2002BC6D13B680093DF
:102C20007B6900224021F86800F014F80346002B6D
:102C300001D003230AE0FB68202283F86920FB68A7
:102C4000002283F86820002300E00223184618378A
:102C5000BD4680BD80B584B000AFF860B9603B6010
:102C60001346FB712CE0BB69B3F1FF3F28D0BB6971
:102C7000002B07D0FEF7DCF902463B68D21ABB698D
:102C80009A421DD3FB681B68FA681268126822F426
:102C9000D0721A60FB681B68FA681268926822F0AA
:102CA00001029A60FB68202283F86920FB682022D9
:102CB00083F86A20FB68002283F8682003230FE072
:102CC000FB681B68DA69BB681A40BB689A420CBF94
:102CD00001230023DBB21A46FB799A42C3D00023BA
:102CE00018461037BD4680BD90B587B000AF7860FC
:102CF0000023FB601023FB7500237B810023BB8234
:102D00000023FB747B689A687B681B691A437B68A5
:102D10005B691A437B68DB691343FB607B681A6855
:102D20007B681B681968AA4B0B40F9680B4313605A
:102D30007B681B687A681268526822F440517A688E
:102D4000D2680A435A607B689A697B681B6A13439E
:102D5000FB607B681B687A681268926822F43061B5
:102D6000FA680A439A607B681B689A4A93421FD1AB
:102D7000994BD3F8903003F00303032B00F23E810C
:102D800001A252F823F000BF992D0008A52D0008DC
:102D90009F2D0008AB2D00080123FB752EE10223B7
:102DA000FB752BE10423FB7528E10823FB7525E166
:102DB0007B681B68894A934230D1874BD3F89030A7
:102DC00003F00C030C2B00F2198101A252F823F03E
:102DD000052E0008FD2F0008FD2F0008FD2F00081C
:102DE000112E0008FD2F0008FD2F0008FD2F000800
:102DF0000B2E0008FD2F0008FD2F0008FD2F0008F6
:102E0000172E00080023FB75F8E00223FB75F5E0A0
:102E10000423FB75F2E00823FB75EFE07B681B6879
:102E20006F4A93421CD16C4BD3F8903003F03003BF
:102E3000102B0FD0102B02D8002B05D0DEE0202B5A
:102E400005D0302B09D0D9E00023FB75D6E0022352
:102E5000FB75D3E00423FB75D0E00823FB75CDE0C0
:102E60007B681B685F4A93421CD15B4BD3F8903060
:102E700003F0C003402B0FD0402B02D8002B05D00D
:102E8000BCE0802B05D0C02B09D0B7E00023FB7538
:102E9000B4E00223FB75B1E00423FB75AEE0082328
:102EA000FB75ABE07B681B684F4A934220D14A4BCD
:102EB000D3F8903003F44073B3F5807F12D0B3F5AC
:102EC000807F02D8002B07D098E0B3F5007F06D0B2
:102ED000B3F5407F09D091E00023FB758EE002231B
:102EE000FB758BE00423FB7588E00823FB7585E008
:102EF0007B681B683D4A934220D1374BD3F8903012
:102F000003F44063B3F5806F12D0B3F5806F02D83D
:102F1000002B07D072E0B3F5006F06D0B3F5406F19
:102F200009D06BE00123FB7568E00223FB7565E0C7
:102F30000423FB7562E00823FB755FE07B681B6878
:102F40002B4A934220D1244BD3F8903003F44053C2
:102F5000B3F5805F12D0B3F5805F02D8002B07D0A5
:102F60004CE0B3F5005F06D0B3F5405F09D045E013
:102F70000023FB7542E00223FB753FE00423FB7551
:102F80003CE00823FB7539E07B681B68194A9342D3
:102F900035D1114BD3F8903003F44043B3F5804F53
:102FA00012D0B3F5804F02D8002B07D026E0B3F53E
:102FB000004F06D0B3F5404F1ED01FE00023FB7535
:102FC0001CE00223FB7519E00423FB7516E000BF2B
:102FD000F369FFEF00100140003802400044004058
:102FE00000480040004C00400050004000140140E8
:102FF00000780040007C00400823FB7500BF7B6820
:10300000DB69B3F5004F6CD1FB7D082B54D801A2CE
:1030100052F823F0393000085530000871300008AC
:10302000B930000887300008B9300008B93000080E
:10303000B9300008A3300008FEF798FF03465A0095
:103040007B685B685B081A447B685B68B2FBF3F3E0
:10305000BB8234E0FEF79EFF03465A007B685B6844
:103060005B081A447B685B68B2FBF3F3BB8226E023
:103070007B685B685A08514B13447A685268B3FB0B
:10308000F2F3BB821BE0FEF78DFE03465A007B681D
:103090005B685B081A447B685B68B2FBF3F3BB8236
:1030A0000DE07B685B685B0803F580327B685B68DA
:1030B000B2FBF3F3BB8202E00123FB7400BFBB8AC7
:1030C00023F00F037B81BB8A5B109BB203F00703E5
:1030D0009AB27B8913437B817B681B687A89DA60AB
:1030E00067E0FB7D082B61D801A252F823F000BFF6
:1030F000153100083531000855310008AD310008A0
:1031000071310008AD310008AD310008AD31000863
:10311000913100087B681C68FEF728FF02467B6837
:103120005B685B081A447B685B68B2FBF3F39BB295
:10313000E3603EE07B681C68FEF72CFF02467B687C
:103140005B685B081A447B685B68B2FBF3F39BB275
:10315000E3602EE07B681A687B685B685908184B4F
:103160000B4479684968B3FBF1F39BB2D36020E06C
:103170007B681C68FEF716FE02467B685B685B088E
:103180001A447B685B68B2FBF3F39BB2E36010E028
:103190007B681B687A685268520802F500417A68B9
:1031A0005268B1FBF2F292B2DA6002E00123FB74E2
:1031B00000BFFB7C18461C37BD4690BD0048E801A7
:1031C0000024F40080B483B000AF78607B685B6A51
:1031D00003F00103002B0AD07B681B687A68126831
:1031E000526822F400317A68926A0A435A607B6816
:1031F0005B6A03F00203002B0AD07B681B687A68C5
:103200001268526822F480317A68D26A0A435A609E
:103210007B685B6A03F00403002B0AD07B681B68A1
:103220007A681268526822F480217A68126B0A4325
:103230005A607B685B6A03F00803002B0AD07B6846
:103240001B687A681268526822F400417A68526BEF
:103250000A435A607B685B6A03F01003002B0AD0B4
:103260007B681B687A681268926822F480517A68D9
:10327000926B0A439A607B685B6A03F02003002B21
:103280000AD07B681B687A681268926822F4005141
:103290007A68D26B0A439A607B685B6A03F04003EA
:1032A000002B1AD07B681B687A681268526822F477
:1032B00080117A68126C0A435A607B681B6CB3F504
:1032C000801F0AD17B681B687A681268526822F4F2
:1032D000C0017A68526C0A435A607B685B6A03F0EB
:1032E0008003002B0AD07B681B687A6812685268DA
:1032F00022F400217A68926C0A435A6000BF0C37AE
:10330000BD465DF8047B704780B586B002AF78603B
:103310000023FB607B680022DA66FDF789FEF86017
:103320007B681B681B6803F00803082B0ED16FF045
:103330007E430093FB6800224FF400117868FFF78A
:1033400089FC0346002B01D003230CE07B6820227C
:1033500083F869207B68202283F86A207B6800223A
:1033600083F86820002318461037BD4680BD000052
:10337000DFF834D0002103E00C4B5B58435004319C
:103380000B480C4B42189A42F6D30B4A02E000233A
:1033900042F8043B094B9A42F9D3FDF7C1FD00F016
:1033A00011F8FDF7ADFA704700000820103D000845
:1033B000000000207000002070000020D4010020D8
:1033C000FEE7000070B50D4E0D4CA41BA4100025A7
:1033D000A54209D10B4E0C4C00F04CFCA41BA410D0
:1033E0000025A54205D170BD56F825309847013516
:1033F000EEE756F8253098470135F2E7083D00081A
:10340000083D0008083D00080C3D00080244034642
:10341000934200D1704703F8011BF9E70EB400B5E1
:103420009CB04FF402711DABADF8141002900690E1
:103430006FF000410A48049107914FF6FF7153F86D
:10344000042BADF816100068019302A900F066F88D
:10345000029B00221A701CB05DF804EB03B07047A9
:103460000C0000202DE9F0478E689E4282460C46F3
:103470009146984635D88A8912F4906F31D02568E4
:1034800009696F1A6569022305EB450595FBF3F59C
:1034900008F101033B449D4238BF1D46530531D519
:1034A000294600F039FB064650B90C23CAF8003013
:1034B000A38943F04003A3814FF0FF30BDE8F087BC
:1034C0003A46216900F0B4FAA38923F4906343F0EB
:1034D0008003A381266165613E44ED1B2660A560E3
:1034E0004646464528BF464632464946206800F0D3
:1034F000AAFAA3689B1BA36023681E4426600020D1
:10350000BDE8F0872A4600F065FB06460028E1D1B9
:103510002169504600F0B2FAC7E700002DE9F04FEC
:103520009DB0804603938B891C060D4616460FD529
:103530000B696BB9402100F0EFFA2860286128B9C7
:103540000C23C8F800304FF0FF30C5E040236B611A
:103550000023099320238DF8293030238DF82A3059
:103560004FF0010B37463C4614F8013B002B3CD191
:10357000B7EB060A0BD05346324629464046FFF7C2
:1035800071FF013000F0A380099B534409933B78FD
:10359000002B00F09C8000234FF0FF320493079330
:1035A000059206938DF853301A93052221785048DE
:1035B000FCF746FE671C049BD8B9D90644BF2022FD
:1035C0008DF853201A0744BF2B228DF85320227800
:1035D0002A2A16D0079A00210A20274601343B7870
:1035E000303B092B51D9C9B111E0252BC0D027465A
:1035F000B9E73F4A801A0BFA00F0184304903C46A2
:10360000D3E7039A111D12680391002A01DB079288
:1036100004E0524243F00203079204933B782E2BBE
:103620000ED17B782A2B07F1010132D1039B1A1DA1
:103630001B680392002BB8BF4FF0FF33023705938E
:103640002C4C397803222046FCF7FAFD38B1402390
:10365000001B03FA00F0049B0343049301373978FD
:1036600025488DF8281006227E1CFCF7E9FD00286D
:1036700035D0224BFBB9039B073323F007030833F4
:103680000393099B4B4409936CE700FB0232012131
:10369000A3E70023059318460A240F4601313A7820
:1036A000303A092A03D9002BCAD00590C8E704FB99
:1036B00000200123F1E703AB00932A46104B04A935
:1036C0004046AFF30080B0F1FF3F8146D9D1AB89CE
:1036D0005B063FF538AF09981DB0BDE8F08F03AB2E
:1036E00000932A46064B04A9404600F081F8EAE719
:1036F000CC3C0008D23C0008D63C0008000000008A
:10370000653400082DE9F04791461F468A680B6929
:10371000DDF820809342B8BF1346C9F8003091F815
:10372000432006460C4612B10133C9F80030236825
:10373000990642BFD9F800300233C9F80030256835
:1037400015F0060507D104F1190AE368D9F800203D
:103750009B1A9D4229DB94F843302268003318BF3E
:10376000012392062ED404F1430239463046C04765
:10377000013021D02368E568D9F8002003F0060362
:10378000042B08BFAD1AA36822690CBF25EAE575B2
:1037900000259342C4BF9B1AED184FF000091A345C
:1037A0004D451BD10020BDE8F08701235246394624
:1037B0003046C047013003D14FF0FF30BDE8F087FD
:1037C0000135C2E7E1185A1C302081F84300224439
:1037D00094F8451082F843100233C4E701232246CF
:1037E00039463046C0470130E6D009F10109D7E734
:1037F0002DE9F04317460A7E85B06E2A98460646A4
:103800000C460C9B01F1430E00F0BC801AD8632AD1
:103810002ED00AD8002A00F0C880582A00F08A80EA
:1038200004F1420584F842202AE0642A01D0692A82
:10383000F6D121681A6811F0800F23D0111D19608C
:10384000136827E0732A00F0B48008D86F2A2AD0C2
:10385000702AE5D10A6842F020020A6003E0752A66
:1038600021D0782ADCD1782284F845206E4964E0A2
:103870001A6801F14205111D1960136884F842307D
:103880000123A3E011F0400F02F104011960D7D029
:10389000B2F90030002B03DA2D225B4284F843207A
:1038A00062490A2217E02068196810F0800F03D0DF
:1038B000081D18600B6806E010F0400F01F10400CD
:1038C0001860F7D00B8859496F2A14BF0A220822C2
:1038D000002084F843006568A560002DC0F29C803C
:1038E000206820F004002060002B3FD1002D40F024
:1038F00095807546082A0BD12368DA0708D5236915
:1039000062689A42DEBF302305F8013C05F1FF35BD
:10391000AEEB05032361CDF800803B4603AA2146A8
:103920003046FFF7EFFE013055D14FF0FF3005B0C4
:10393000BDE8F08381F845203C492268186812F000
:10394000800F00F104051D6001D0036802E05506F8
:10395000FBD50388D00744BF42F0200222601BB988
:10396000226822F0200222601022B1E77546B3FBE4
:10397000F2F002FB1033CB5C05F8013D0346002852
:10398000F5D1B7E708681A68496910F0800F04D0CC
:10399000101D18601368196007E010F0400F02F165
:1039A000040018601368F6D019800023236175465F
:1039B000B1E71A68111D1960156862680021284670
:1039C000FCF73EFC08B1401B606063682361002384
:1039D00084F843309FE723692A4639463046C0477A
:1039E0000130A2D023689B0707D5002504F11909EF
:1039F000E368039A9B1A9D4205DBE068039B9842AB
:103A0000B8BF184693E701234A4639463046C047B7
:103A100001308AD00135EBE7002BA7D10B7884F871
:103A2000423004F1420565E7EE3C0008DD3C000849
:103A300010B5431E0A44914200D110BD11F8014B4C
:103A400003F8014FF7E7884210B501EB020303D8F2
:103A5000421E99420CD110BD9842F9D28118D21A57
:103A6000D34200D110BD13F8014D01F8014DF7E725
:103A700011F8014B02F8014FEBE7000038B505469D
:103A8000002945D051F8043C0C1F002BB8BFE418A6
:103A900000F0D6F81F4A1368104633B9636014600B
:103AA0002846BDE8384000F0CCB8A3420CD92168C4
:103AB0006218934204BF1A685B68636004BF5218BF
:103AC00022600460ECE713465A680AB1A242FAD9B0
:103AD00019685818A0420BD1206801445818824236
:103AE0001960DDD1106852685A6001441960D7E747
:103AF00002D90C232B60D3E7206821188A4204BF27
:103B000011685268626004BF091821605C60C7E7F1
:103B100038BD00BF8C00002070B5CD1C25F003051A
:103B200008350C2D38BF0C25002D064601DBA942B7
:103B300003D90C233360002070BD00F081F8234AC4
:103B40001468214691B9224C23681BB9304600F015
:103B500067F820602946304600F062F8431C26D101
:103B60000C233360304600F06CF8E4E70B685B1B15
:103B70001AD40B2B0FD90B60CD50CC18304600F067
:103B800060F804F10B00231D20F00700C31A1BD0BE
:103B90005A42E25070BD8C420DBF63684B6863604F
:103BA000136018BF0C46E9E70C464968CAE7C41C15
:103BB00024F00304A04205D0211A304600F030F86A
:103BC0000130CDD02560D9E770BD00BF8C0000204A
:103BD00090000020F8B5074614460E4621B911465C
:103BE000BDE8F840FFF798BF22B9FFF747FF254629
:103BF0002846F8BD00F026F884420FD92146384601
:103C0000FFF78AFF05460028F2D031462246FFF72B
:103C10000FFF31463846FFF731FFE9E73546E7E762
:103C200038B5064C002305460846236000F014F81A
:103C3000431C02D1236803B12B6038BDD0010020A2
:103C40007047704751F8040C0028A0F10400BCBF75
:103C50000B58C01870470000044B1968024609B998
:103C600003491960186802441A60704794000020E4
:103C7000D4010020F8B500BFF8BC08BC9E467047D0
:0C3C8000F8B500BFF8BC08BC9E467047B9
:103C8C0048756D3A2025642054656D703A20256482
:103C9C000A0D00004448542052656164204572723C
:103CAC006F7221210A0D00000000000000000000CE
:103CBC0001020304060708090000000001020304C6
:103CCC00232D302B2000686C4C00656667454647F9
:103CDC00003031323334353637383941424344457C
:103CEC0046003031323334353637383961626364EB
:043CFC0065660000F9
:083D000010C6FF7F0100000066
:043D08002502000888
:043D0C0001020008A8
:103D10000024F4001000000001000000100000204A
:103D20000000000000000000000000000000000093
:103D30000000000000000000000000000000000083
:103D40000000000000000000000000000000000073
:103D50000000000000000000000000000000000063
:103D60000000000000000000000000000000000053
:103D70000000000000000000000000000000000043
:04000005080033714B
:00000001FF
